:020000040800F2
:10000000D82100209D010008ED550008EF5500089B
:10001000F3550008F7550008FB55000800000000E4
:10002000000000000000000000000000FF55000874
:1000300001560008000000000B2F0008BD2D00082D
:10004000B7010008B7010008B7010008B7010008B0
:10005000B7010008B7010008B7010008B7010008A0
:10006000B7010008B7010008B7010008B701000890
:10007000B7010008B7010008B7010008B701000880
:10008000B7010008B7010008B7010008B701000870
:10009000B7010008B7010008B7010008B701000860
:1000A000B7010008B7010008B7010008B701000850
:1000B000B7010008B7010008B7010008B701000840
:1000C000B7010008B7010008B7010008B701000830
:1000D000B7010008B7010008B7010008B701000820
:1000E000B7010008B7010008B7010008B701000810
:1000F000B7010008B7010008B7010008B701000800
:10010000B7010008B7010008B7010008B7010008EF
:10011000B7010008B7010008B7010008B7010008DF
:10012000B7010008B7010008B7010008B7010008CF
:10013000B7010008B7010008B7010008B7010008BF
:10014000B7010008B7010008B7010008B7010008AF
:10015000B7010008B7010008B7010008B70100089F
:10016000B7010008B7010008B7010008B70100088F
:10017000B7010008B7010008B7010008B70100087F
:10018000B7010008B7010008DFF80CD005F002FB4A
:1001900000480047AB560008D82100200648804799
:1001A00006480047FEE7FEE7FEE7FEE7FEE7FEE75C
:1001B000FEE7FEE7FEE7FEE79D0200088901000872
:1001C0000CB50020019000907648006840F4803023
:1001D0007449086000BF7348006800F40030009064
:1001E0000198401C0190009818B90198B0F5A04FF3
:1001F000F1D16C48006800F4003010B1012000908B
:1002000001E0002000900098012846D16548403068
:10021000006840F0805063494031086062480068DF
:1002200040F44040604908605E48083000685D491D
:10023000083108600846006840F40040086008463D
:10024000006840F4A05008605848091F0860081F63
:10025000006840F08070091F086000BF51480068C6
:1002600000F000700028F9D040F205705049086095
:100270004C480830006820F003004A490831086003
:100280000846006840F00200086000BF454808309A
:10029000006800F00C000828F8D10CBD10B54548E6
:1002A000006840F47000434908603E48006840F030
:1002B00001003C49086000203A490831086039488B
:1002C00000683D490840374908603C48091D0860FE
:1002D000081F006820F48020091F086000203149B1
:1002E0000C310860FFF76CFF4FF000603149803936
:1002F000086010BD70B500200022022300240221F6
:10030000284D08352D6805F00C0020B1042806D0D2
:10031000082834D107E02A4D2A4E356033E02A4DB3
:10032000284E35602FE01F4D2D1D2D68C5F38054DC
:100330001C4D2D1D2D6805F03F0154B1224DB5FB1C
:10034000F1F5184E361D3668C6F3881605FB06F221
:1003500009E01B4DB5FBF1F5124E361D3668C6F3AC
:10036000881605FB06F20F4D2D1D2D68C5F30145BE
:100370006D1C6B00B2FBF3F5124E356003E0104DBF
:10038000104E356000BF00BF064D08352D68C5F31F
:1003900003150E4E705D0B4D2D68C540094E35603E
:1003A00070BD000000380240007000400854400753
:1003B000003C024088ED00E0FFFFF6FE1030002414
:1003C0000024F4000000002000127A000400002045
:1003D00032490143324A1160704770B50021002351
:1003E0000F22C4781CB32E4C246804F4E064C4F5D6
:1003F000E064C4F30721C1F10404E3B20A41447884
:100400009C40E1B28478144021430C07210E254C16
:1004100005786155047804F01F050124AC40057887
:100420006D11AD0005F1E025C5F8004109E0047843
:1004300004F01F050124AC401B4D0678761145F8E9
:10044000264070BD194A0A400243154B1B1F1A6013
:10045000704739B1124A121D12680243104B1B1D1E
:100460001A6006E00E4A121D126882430C4B1B1DD7
:100470001A607047042808D14FF0E021096941F063
:1004800004014FF0E022116107E04FF0E02109691B
:1004900021F004014FF0E022116170470000FA05DD
:1004A0000CED00E000E400E080E100E080FFFF1FD1
:1004B00010B504469848844208D10121084600F04E
:1004C00086FB0021012000F082FB76E09348844205
:1004D00008D10121022000F07AFB0021022000F067
:1004E00076FB6AE08E48844208D10121042000F0A6
:1004F0006EFB0021042000F06AFB5EE08948844224
:1005000008D10121082000F062FB0021082000F042
:100510005EFB52E08448844208D10121102000F0A3
:1005200056FB0021102000F052FB46E07F48844239
:1005300008D10121202000F04AFB0021202000F0FA
:1005400046FB3AE07A48844208D10121402000F07D
:100550003EFB0021402000F03AFB2EE0754884422B
:1005600008D10121802000F032FB0021802000F022
:100570002EFB22E07048844208D10121801500F052
:1005800026FB0021A01500F022FB16E06B488442F8
:1005900008D10121401500F01AFB0021601500F080
:1005A00016FB0AE06648844207D10121001500F0DD
:1005B0000EFB0021201500F00AFB10BDF0B50A4625
:1005C00000210023002400BF3DE0012505FA01F3CE
:1005D000156805EA03049C4234D105684F000326E0
:1005E000BE40B543056015794E00B54006683543F9
:1005F00005601579012D02D01579022D16D1856877
:100600004F000326BE40B543856055794E00B54086
:10061000866835438560456801268E40B543456050
:10062000456896798E40B6B235434560C5684F003F
:100630000326BE40B543C560D5794E00B540C668B7
:100640003543C560491C1029BFD3F0BD4FF6FF717B
:1006500001600021017141718171C171704708B55C
:100660004FF480320092009A0A430092009AC261CD
:10067000C161009AC261C2690092C269009208BD5C
:100680000246002013690B400BB1012000E000205E
:1006900070470146086980B27047024600205369DE
:1006A0000B400BB1012000E0002070470146486973
:1006B00080B2704701837047418370470AB101835C
:1006C00000E0418370474161704742694A4042619E
:1006D0007047F0B5002300244D07ED0E02FA05F334
:1006E000CE1000F1200555F826504E07F70E0F26C4
:1006F000BE40B543CF1000F1200646F82750CE107B
:1007000000F1200555F8265045EA0304CE1000F10B
:10071000200545F82640F0BD0000024000040240DC
:1007200000080240000C0240001002400014024089
:1007300000180240001C0240002002400024024039
:1007400000280240F948006840F00100F7490860BD
:100750000020F64908310860F4480068F449084070
:10076000F2490860F348091D0860F348EF498431F5
:100770000860F0481038091D0860EC48006820F453
:100780008020EA4908600020E8490C310860E74908
:100790008C31086070470021E44A921C11701146A8
:1007A0000870704710B501460022002300204A114E
:1007B000012A02D1DD4C236808E0022A03D1DB4C78
:1007C0007034236802E0D94C7434236801F01F02AE
:1007D000012494401C400CB1012000E0002010BD19
:1007E00038B5002000900024002500BF3120FFF71D
:1007F000D9FF05460098401C00900098B0F5A04F26
:1008000001D0002DF2D03120FFF7CCFF08B1012438
:1008100000E00024204638BD01460020C34A10688D
:1008200020F0F80040EAC10010607047C34908603A
:1008300070470021BD4A703211701170012802D03A
:1008400004280AD104E00121B84A7032117005E091
:100850000521B64A7032117000E000BF00BF70473A
:10086000B7490860704770B5049C41EA82150126BB
:10087000C6EB530645EA0645054345EA0465AB4E1B
:10088000361D356070BDAD4908667047820142EA89
:100890000172A64B84331A607047A8498866704776
:1008A00010B5830143EA016343EA02739F4C883425
:1008B000236010BDA14908677047A049C86470470C
:1008C00002460020994B0833186820F0EC6042EA99
:1008D00001031843954B0833186070470246002007
:1008E000924B0833186820F0784042EA010318431D
:1008F0008E4B083318607047014600208B4A08323F
:10090000106820F0030008431060704787480830E3
:10091000006800F00C00704701460020834A08324E
:10092000106820F0F0000843106070470146002076
:100930007E4A0832106820F4E05008431060704787
:1009400001460020794A0832106820F4604040EAED
:10095000C10010607047F0B500210022002402257C
:1009600000260223714F08373F6807F00C0121B1C0
:10097000042905D0082937D105E0724F076036E019
:10098000714F076033E0694F3F1D3F68C7F38056E2
:10099000664F3F1D3F6807F03F036EB16A4FB7FBDC
:1009A000F3F7DFF888C10CF1040CDCF800C0CCF3DD
:1009B000881C07FB0CF40CE0624FB7FBF3F7DFF881
:1009C0006CC10CF1040CDCF800C0CCF3881C07FBF4
:1009D0000CF4564F3F1D3F68C7F301477F1C7D0055
:1009E000B4FBF5F7076002E0564F076000BF00BF99
:1009F0004E4F08373F6807F0F0010909534F7A5C02
:100A00000768D7404760494F08373F6807F4E0510F
:100A1000890A4E4F7A5C4768D7408760434F083752
:100A20003F6807F46041490B484F7A5C4768D740FC
:100A3000C760F0BD002100F44072B2F5407F0AD1DA
:100A40003A4A0832116821F4F811414A0240114330
:100A5000364A08321160354A70321268C0F30B030F
:100A60001A43324B70331A60704735494439086075
:100A7000704733494039086070473649086070470D
:100A800001460020294A8C32106820F01F004A1EBF
:100A90001043264A8C321060704701460020234ADA
:100AA0008C32106820F4F8504A1E40EA02201F4A97
:100AB0008C3210607047014600201C4A8C3210684E
:100AC00020F4401008431060704701460020174A88
:100AD0008C32106820F440000843106070470146D3
:100AE0000020124A8C32106820F440300843106015
:100AF000704719490860704739B10C4A30321268A2
:100B000002430A4B30331A6006E0084A303212685A
:100B10008243064B30331A607047F9B1034A3432CE
:100B200012680243014B34331A601CE00038024063
:100B3000FFFFF6EA1030002400300020000047429A
:100B4000800E47420024F40000127A0014000020B6
:100B5000FFFCFF0F5C014742E01147428F4A1268D9
:100B600082438E4B1A60704739B18C4A121D12684D
:100B700002438A4B1B1D1A6006E0884A121D126848
:100B80008243864B1B1D1A60704739B1834A0C3271
:100B900012680243814B0C331A6006E07F4A0C3224
:100BA000126882437D4B0C331A60704739B17B4A1F
:100BB000103212680243794B10331A6006E0774A0C
:100BC000103212688243754B10331A60704739B186
:100BD000724A243A12680243704B243B1A6006E0C2
:100BE0006E4A243A126882436C4B243B1A60704769
:100BF00039B16A4A203A12680243684B203B1A60B6
:100C000006E0664A203A12688243644B203B1A6031
:100C1000704739B1614A1C3A126802435F4B1C3B72
:100C20001A6006E05D4A1C3A126882435B4B1C3B2B
:100C30001A60704739B1594A143A12680243574B47
:100C4000143B1A6006E0554A143A12688243534B2B
:100C5000143B1A60704739B1504A103A1268024387
:100C60004E4B103B1A6006E04C4A103A1268824321
:100C70004A4B103B1A60704739B1484A1C3212681F
:100C80000243464B1C331A6006E0444A1C32126889
:100C90008243424B1C331A60704739B13F4A2032BD
:100CA000126802433D4B20331A6006E03B4A203273
:100CB00012688243394B20331A60704739B1374A82
:100CC000243212680243354B24331A6006E0334A5B
:100CD000243212688243314B24331A60704739B191
:100CE0002E4A2C32126802432C4B2C331A6006E039
:100CF0002A4A2C3212688243284B2C331A607047E0
:100D000039B1264A303212680243244B30331A601C
:100D100006E0224A303212688243204B30331A6098
:100D20007047012808D11D493C31096841F008018C
:100D30001A4A3C32116007E018493C31096821F039
:100D40000801164A3C321160704739B1134A273AFC
:100D500012780243114B273B1A7006E00F4A273ADC
:100D6000127882430D4B273B1A7070470B48403076
:100D7000006840F0807009494031086070470146C2
:100D80000020064A283A12680A400AB1012000E011
:100D900000207047014926390870704734380240F6
:100DA00072B6704762B67047EFF3108072B6704744
:100DB00080F31088704730BF704720BF7047B0FA8B
:100DC00080F0704790FAA0F0B0FA80F0704790FA87
:100DD000A0F0704710B5FC480088401EFA49088012
:100DE00008460088A0B904F07EFBF8490860084670
:100DF0000068F7490968441AF6480068A04201D221
:100E0000F4480460F4480068A04201D2F24804604B
:100E100010BD10B5F1480088401CF0490880EA4830
:100E2000008818B904F05FFBE9490860E6480088CB
:100E3000401CE549088010BD10B5002400BF00BF6C
:100E4000FFF7B2FF044600BFFFF7E3FF00BF10212A
:100E5000E34800F0B2FC00BFFFF7BCFF00BF204634
:100E6000FFF7A6FF00BF00BF10BD10B5FFF7E4FFFE
:100E700010BD70B500260020D8490880D2490880EE
:100E8000D3490860D1490860D2490860D249086056
:100E9000D4490860002400BFFFF786FF064600BF64
:100EA00000250BE00020CB490860FFF7B2FFFFF7F9
:100EB00091FFC84800680444681C85B2002DF1D039
:100EC000C84804600020C3490860C349086000BFE7
:100ED0003046FFF76DFF00BF70BD10B50020C2495E
:100EE000086004F0EAFA10BD10B5FFF7F6FFFFF74F
:100EF000C0FFFFF7BAFF10BD00BFFEE770B50546A3
:100F00000C46002614B900BFFFF7F6FF15B90A20FA
:100F1000208070BD00BF00BFFFF746FF064600BF40
:100F2000FFF777FF00BF1022AD49284601F09CF97A
:100F300000BFFFF74FFF00BF3046FFF739FF00BF8C
:100F400000BF0020208000BFE3E72DE9F041054607
:100F50000C46002714B900BFFFF7CEFF1DB90A20C9
:100F60002080BDE8F0811021284601F065F9064691
:100F7000102E19D200BF00BFFFF716FF074600BFB3
:100F8000FFF747FF00BF10222946954801F06CF992
:100F900000BFFFF71FFF00BF3846FFF709FF00BF84
:100FA00000BF0020208002E04FF47A70208000BF54
:100FB000D7E710B504F097FA0446204610BD7047F5
:100FC00000B5014611B900BFFFF796FF864A1068C9
:100FD00008B1002201E04FF4FA620A8000BD8249A4
:100FE00008607047014608467E4A1268904203D95D
:100FF0007C4A1268801A00E00020704770B5002516
:1010000000BFFFF7D1FE054600BF7248046800BF6D
:101010002846FFF7CDFE00BF2046FFF7E3FF064658
:10102000304670BD70B50025FFF7E8FF044600BFED
:10103000FFF7BAFE054600BF00206649086000BF02
:101040002846FFF7B5FE00BF204670BD70B50025ED
:1010500000BFFFF7A9FE054600BF5F48046800BF58
:101060002846FFF7A5FE00BF2046FFF7BBFF064658
:10107000304670BD70B505462846FFF7A0FE044611
:10108000183C204670BD70B505462846FFF797FE10
:101090000446103C204670BD70B505462846FFF753
:1010A0008EFE044600BF204670BD30B502460B469A
:1010B0004FF0FF350024AD1A9C4127D24FF0FF3589
:1010C0002C0CAD1A9C410FD24FF0FF352C0AAD1AF3
:1010D0009C4103D2190E454C605C45E0190C434C11
:1010E000645C082560193FE04FF0FF35FF24AD1A1E
:1010F0009C4105D2190A3D4C645C1025601933E00F
:1011000019463A4C645C182560192DE04FF6FF75BE
:101110000024AD1A9C4115D26FF07F450024AD1A12
:101120009C4107D2140E44EA0321304C645C202514
:10113000601919E0140C44EA03412C4C645C282526
:10114000601911E0FF250024AD1A9C4107D2140A52
:1011500044EA0361254C645C3025601904E01146C3
:10116000224C645C3825601930BD70B504460CB95A
:10117000082070BD2046FFF725FE05462846F8E703
:1011800070B504460CB9102070BD2046FFF71AFE5A
:1011900005462846F8E770B504460CB9202070BD16
:1011A0002046FFF70FFE05462846F8E72DE9F043F5
:1011B00004460D46002184EA01006940084317D126
:1011C0004020BDE8F08300002A000020300000200D
:1011D0002C000020380000203C00002028000020C7
:1011E000940000203400002024000020D85700087C
:1011F000E243E843521C40F1000102EA040601EA1E
:10120000050730463946FFF750FF8046C8F13F09D1
:101210004846D6E710B502464FF0553000EA520373
:10122000D11A01F033344FF0333000EA9103E11862
:1012300001F00F344FF00F3000EA1113E11801EB09
:10124000014000EB0020010E084610BD002800D12F
:101250007047002900D17047002A00D170472DE95E
:10126000F81F00F0030301F00304A34211D1C3F1FE
:10127000040303F00303012B1DD3012A00D2F2E083
:1012800011F8014B00F8014BA3F10103A2F1010297
:10129000F1E700F0010301F00104A34200D094E063
:1012A000012B44D311F8014B00F8014BA3F10103CA
:1012B000A2F10102F4E7B2F5B47F26D3B1E8F81F3A
:1012C000A0E8F81FB1E8F81FA0E8F81FB1E8F81F80
:1012D000A0E8F81FB1E8F81FA0E8F81FB1E8F81F70
:1012E000A0E8F81FB1E8F81FA0E8F81FB1E8F81F60
:1012F000A0E8F81FB1E8F81FA0E8F81FB1E8F81F50
:10130000A0E8F81FA2F5B472D5E7282A06D3B1E801
:10131000F81FA0E8F81FA2F12802F6E7042A06D376
:1013200051F8043B40F8043BA2F10402F6E7202AFE
:1013300042D331F8023B20F8023B31F8023B20F85F
:10134000023B31F8023B20F8023B31F8023B20F827
:10135000023B31F8023B20F8023B31F8023B20F817
:10136000023B31F8023B20F8023B31F8023B20F807
:10137000023B31F8023B20F8023B31F8023B20F8F7
:10138000023B31F8023B20F8023B31F8023B20F8E7
:10139000023B31F8023B20F8023B31F8023B20F8D7
:1013A000023B31F8023B20F8023B31F8023B20F8C7
:1013B000023BA2F12002BAE7022A06D331F8023B2F
:1013C00020F8023BA2F10202F6E7102A42D311F8FC
:1013D000013B00F8013B11F8013B00F8013B11F81B
:1013E000013B00F8013B11F8013B00F8013B11F80B
:1013F000013B00F8013B11F8013B00F8013B11F8FB
:10140000013B00F8013B11F8013B00F8013B11F8EA
:10141000013B00F8013B11F8013B00F8013B11F8DA
:10142000013B00F8013B11F8013B00F8013B11F8CA
:10143000013B00F8013B11F8013B00F8013B11F8BA
:10144000013B00F8013B11F8013B00F8013BA2F120
:101450001002BAE7012A06D311F8013B00F8013B5C
:10146000A2F10102F6E7BDE8F81F704701464129E5
:1014700003DB5A2901DC012200E00022012A08D006
:10148000612903DB7A2901DC012200E00022012A24
:1014900001D1012200E00022104670470146412997
:1014A00003DB5A2901DC012200E00022012A08D0D6
:1014B000612903DB7A2901DC012200E00022012AF4
:1014C00001D1012200E00022012A08D0302903DBEB
:1014D000392901DC012200E00022012A01D1012288
:1014E00000E00022104670470146612903DB7A299B
:1014F00001DC012200E0002210467047014641292C
:1015000003DB5A2901DC012200E00022104670476B
:101510000146302903DB392901DC012200E00022E9
:10152000104670470146302903DB372901DC0122D0
:1015300000E00022104670470146302901DB3929BE
:1015400007DD412901DB462903DD612903DB66292B
:1015500001DC012200E000221046704701462029EC
:1015600001D0092901D1012200E000221046704774
:101570000146202909D00D2907D00A2905D00C29B8
:1015800003D0092901D00B2901D1012200E000225A
:10159000104670470146202903DB7E2901DC012229
:1015A00000E00022104670470146212903DB7E2916
:1015B00001DC012200E0002210467047014620298C
:1015C00003DB7E2901DC012200E00022012A35D163
:1015D000202909D00D2907D00A2905D00C2903D0CC
:1015E000092901D00B2901D1012200E000222ABBE8
:1015F000412903DB5A2901DC012200E00022012AF3
:1016000008D0612903DB7A2901DC012200E00022F5
:10161000012A01D1012200E00022012A08D030294C
:1016200003DB392901DC012200E00022012A01D17B
:10163000012200E000220AB9012200E00022104647
:10164000704701464AB2002A01DB1F2901DD7F29CC
:1016500001D1012200E000221046704701464129D5
:1016600003DB5A2901DC012200E00022012A02D119
:1016700001F1200200E00A46D0B27047014661291C
:1016800003DB7A2901DC012200E00022012A02D1D9
:10169000A1F1200200E00A46D0B27047F0B504463E
:1016A0000B462046FFF7EAFF05461846FFF7E6FF20
:1016B0000646B54201D1012000E000200746384629
:1016C000F0BD000030B5039C0A60651E15444D60F6
:1016D0008A60FE4D2D68CD600B61FC4D296030BDE8
:1016E0002DE9F84F05460E4617461C46DDE90A89E6
:1016F0004FF0000A00BF00BFFFF756FB824600BF55
:10170000FFF787FB00BF43463A4631462846009420
:10171000FFF7D8FF00BFFFF75DFB00BF5046FFF7A4
:1017200047FB00BF00BF42F21070A9F80000BDE8FF
:10173000F88F3EB50020E5490860E54C02A801217C
:101740008B022246CDE90010E249E3A0FFF7C8FF73
:10175000BDF8080042F21071884203D000BFFFF7C5
:10176000CBFB00BF3EBD2DE9F04105460B4694463C
:101770000027002402E03F021F43641C042CFAD31C
:10178000604605F00306294646B1344603E001F8F9
:10179000013B401E641C08B1042CF8D30A4601E04A
:1017A00080C2001F0428FBD2114602E001F8013B71
:1017B000401E0028FAD1BDE8F08130B505460C4640
:1017C000224600212846FFF7CEFF30BD2DE9F04F1D
:1017D00085B007468846914646463D46AE4207D903
:1017E0004A4641463846FFF731FD05B0BDE8F08F67
:1017F0004C4607EB0900451E08EB0900461EA81BD6
:1018000004900498042834D305F00300029006F0F5
:1018100003010191DDE90110884201D1012000E0BE
:10182000002000900098012823D10298032810D0AE
:10183000029840B2039008E016F8010905F8010982
:10184000641E0398401E40B2039014B10398002810
:10185000F2DAA5F1030AA6F1030B04E05BF8040930
:101860004AF80409241F042CF8D20AF103050BF1ED
:10187000030604E016F8010905F80109641E002CAE
:10188000F8D100BFB1E72DE9F84F804689461546EB
:1018900015B90120BDE8F88FB8F1000F01D1002083
:1018A000F8E7B9F1000F01D10020F3E70124294640
:1018B00008EB050209EB050302F0030C03F0030B30
:1018C000DC4501D1012000E00020009000980128B3
:1018D00029D1BCF1000F12D0E2460AE0521E5B1E75
:1018E000107893F800E0704500D00024491EAAF15A
:1018F000010A012C03D111B1BAF1000FEED1012C74
:1019000011D116461F4608E0361F3F1F3068D7F832
:1019100000E0704500D00024091F012C01D10429EA
:10192000F2D232463B4608E0521E5B1E107893F816
:1019300000E0704500D00024491E012C01D100298F
:10194000F2D12046A6E72DE9F04F04460D46914618
:10195000DDE909C8994501D9484600E018468246A4
:10196000AAF1010BA06820EA0B00AAF1010ED4F83D
:1019700008B00BEA0E0BBBF1000F02D14FF0000BC9
:1019800000E0D34600EB0B014819A3F1010B20EA5C
:101990000B0001EB050BA3F1010E0BEA0E0BBBF1E3
:1019A000000F02D14FF0000B00E09B4600EB0B0252
:1019B000D4E9010BA0EB0B00461CA068171ABE422D
:1019C0000CD2BCF1000F02D0B81BCCF8000042F2E0
:1019D000D970A8F800000020BDE8F08FA26042F2A4
:1019E0001070A8F800000846F6E72DE9FC5F0C46E9
:1019F00015461E46DDE90C9A0E9F4FF0000B00BF06
:101A000000BFFFF7D1F9834600BFFFF702FA00BF1E
:101A10004B46324629462046CDE900A7FFF793FF03
:101A20008046388842F2107188420BD000BFFFF721
:101A3000D1F900BF5846FFF7BBF900BF00BF002037
:101A4000BDE8FC9F00BFFFF7C5F900BF5846FFF790
:101A5000AFF900BF00BF4046F2E72DE9FE4305465F
:101A60000E4617461C46012033462A461949CDE941
:101A7000017400900020FFF7B8FF8046208842F2F2
:101A8000D971884202D142F2E37020804046BDE81D
:101A9000FE832DE9F84F04460E4615469A4600206F
:101AA000009004B90B4C00BF00BFFFF77DF9009018
:101AB00000BFFFF7AEF900BF711EA0688843721E19
:101AC000A168114061B900210BE000004000002036
:101AD000A4000020A40400204865617000000000FC
:101AE000314600EB010900BFFFF774F900BF009811
:101AF000FFF75EF900BF00BFD4E90010401A471C91
:101B00002068A9EB0008A7EB080B35B16F60C5F89A
:101B100000802068A860C5F80C9042F21070AAF806
:101B200000005846BDE8F88F70B505460C462346C0
:101B300000222946FA48FFF7ACFF0646208842F209
:101B40001071884201D0002070BD3046FCE770B5AE
:101B500004460D46002600BF00BFFFF725F90646E4
:101B600000BFFFF756F900BF2068A06000BFFFF775
:101B700031F900BF3046FFF71BF900BF00BF42F24A
:101B80001070288070BD2DE9FE4307460C46904634
:101B90001D4604B9E24C0020012104234246CDE950
:101BA0000105009121463846FFF71FFF06463046E3
:101BB000BDE8FE832DE9FE4F06460C4617469846C3
:101BC000DDE90C9A04B9D64C012043463A46214639
:101BD0008DE801063046FFF708FF05462846BDE8B8
:101BE000FE8F2DE9FE4F06460C4617469846DDE966
:101BF0000C9A04B9CA4C206943463A4621468DE8FE
:101C000001063046FFF7F1FE05462846BDE8FE8F87
:101C1000F0B503460E461446701EC718C148016849
:101C200018E00A684D68934206D1AF4204D14FF4E0
:101C30001E5020800846F0BD934201D3AB4203D929
:101C4000934206D8974204D342F27F702080084620
:101C5000F1E7C9680029E4D142F210702080002029
:101C6000E9E7002202604260C26082600261426174
:101C700042F210720A8070472DE9FF4F87B0054687
:101C800088461E46179C0020039021462846FFF7F1
:101C9000E8FF208842F21071884202D00BB0BDE804
:101CA000F08FB8F1000F02D1DFF874924FE000BF5F
:101CB00000BFFFF779F8039000BFFFF7AAF800BF55
:101CC000224640460999FFF7A3FF81462088A0F5E8
:101CD0001C50103820B16F2825D0702822D12CE05C
:101CE0001698012304221421CDE900048C48FFF743
:101CF0002AFE8146208842F21071884209D000BF36
:101D0000FFF768F800BF0398FFF752F800BF00BF65
:101D1000C4E7099801234246494600900020FFF796
:101D2000D1FC0AE000BF00BFFFF754F800BF0398E2
:101D3000FFF73EF800BF00BFB0E700BF00BFFFF7EE
:101D400049F800BF0398FFF733F800BF00BF1598AC
:101D5000411E149820EA01011598401E149A104063
:101D600008B9002000E0159801EB000A0AFB06F014
:101D7000069001211698CDE90104009149466AA018
:101D8000159B069AFFF731FE0746208842F2107134
:101D9000884200D082E701211698B2000423CDE9E1
:101DA000010400915E4965A0FFF71FFE28612088AD
:101DB00042F21071884200D070E704974FF0000B98
:101DC00008E00498296941F82B00049850440490D5
:101DD0000BF1010BB345F4D30698401E384405902F
:101DE0002F6005986860AE60C5F80CA06E6100BFFA
:101DF00054E72DE9F04104468846154600270026A1
:101E000000BF00BFFEF7D0FF074600BFFFF701F895
:101E100000BF606958B16069401E6061D4E9040187
:101E200050F821600020D4E9041241F8220000BFDC
:101E3000FEF7D0FF00BF3846FEF7BAFF00BF00BF75
:101E40001EB942F2DE70288002E042F21070288053
:101E50003046BDE8F0812DE9F04104460E461546B6
:101E6000002700BF00BFFEF79FFF074600BFFEF739
:101E7000D0FF00BFA168606988420DD300BFFEF7A4
:101E8000A9FF00BF3846FEF793FF00BF00BF42F234
:101E9000DD702880BDE8F081D4E9040140F82160BC
:101EA0006069401C606100BFFEF794FF00BF3846C8
:101EB000FEF77EFF00BF00BF42F21070288000BF17
:101EC000E8E72DE9F04104460D46002700BF00BFBA
:101ED000FEF76AFF074600BFFEF79BFF00BF66697B
:101EE00000BFFEF777FF00BF3846FEF761FF00BF77
:101EF00000BF42F2107028803046BDE8F0812DE925
:101F0000FF4F83B00C4692461F46DDF850B0DDF817
:101F10004890DDE91001884222D9109821E00000A4
:101F2000A404002040000020556E6E616D656420A1
:101F300073746174696320706F6F6C00556E6E61AD
:101F40006D65642073746174696320706F6F6C20B9
:101F50006672656520626C6B2074626C0000000024
:101F600011980646042F0DD2701E042121EA0000AC
:101F7000711E01F0040109B9002100E0314600EBB7
:101F8000010809E0701E27EA0001384008B9002066
:101F900000E0304601EB0008B9F1000F15D0002039
:101FA000012108FB09F23346CDE9010B00915146AE
:101FB0000398FFF71AFD0546BBF8000042F21071C6
:101FC000884202D007B0BDE8F08FC4F800A0676077
:101FD000A6601198E060139860610020A061B9F1DB
:101FE000000F0ED0256100BF04E005EB0801296059
:101FF0004544401CA9F101018142F6D80021296025
:1020000001E00020206142F21070ABF8000000BF38
:10201000D8E72DE9F04F85B005460E4614461F4619
:10202000DDE910ABDDE90E8904B9824C01203B46A5
:1020300022463146CDE903ABCDE90109CDF8008058
:102040002846FFF75CFF05B0BDE8F08F2DE9F04FA3
:1020500085B005460E4614461F46DDE910ABDDE9A6
:102060000E8904B9734C20693B4622463146CDE9BE
:1020700003ABCDE90109CDF800802846FFF73FFF0B
:1020800005B0BDE8F08F2DE9FE4304460D464FF044
:102090000008606938B300BF00BFFEF785FE8046C8
:1020A00000BFFEF7B6FE00BFD4E9051088420ED38C
:1020B00000BFFEF78FFE00BF4046FEF779FE00BF6F
:1020C00000BF42F2DE7028800020BDE8FE83A069D8
:1020D000401CA06100BFFEF77DFE00BF4046FEF73A
:1020E00067FE00BF00BF00BF00BFFEF75DFE804679
:1020F00000BFFEF78EFE00BF206980B12669306800
:10210000206100BFFEF766FE00BF4046FEF750FEAE
:1021100000BF00BF42F2107028803046D5E700BFF4
:10212000FEF758FE00BF4046FEF742FE00BF00BF6C
:1021300000270021E0688DE82300384694E80E006F
:10214000FFF753FC0646288842F21071884201D0FE
:102150000020BAE73046B8E72DE9F04104460D46C5
:1021600016460027606920B300BF00BFFEF71CFEC3
:10217000074600BFFEF74DFE00BFA06968B900BF6B
:10218000FEF728FE00BF3846FEF712FE00BF00BF74
:1021900042F2DD703080BDE8F081A069401EA06190
:1021A00000BFFEF717FE00BF3846FEF701FE00BF76
:1021B00000BF00BF00BFFEF7F7FD074600BFFEF7F8
:1021C00028FE00BF20692860256100BFFEF702FEDF
:1021D00000BF3846FEF7ECFD00BF00BF42F21070B2
:1021E000308000BFD7E72DE9F04104460D460027B7
:1021F0006069C0B100BF00BFFEF7D6FD074600BF53
:10220000FEF707FE00BFD4E90501461A00BFFEF73E
:10221000E1FD00BF3846FEF7CBFD00BF00BF42F234
:102220001070288003E0002642F2DF7028803046DC
:10223000BDE8F081A404002010B502460B4611460B
:10224000002001E0491C401C19B10C780CB19842E7
:10225000F8D310BD30B504464FF0FF312046FFF7EC
:10226000EBFF0546284630BD70B504460D461646C0
:102270000CB9002070BD0DB90020FBE721462A46AD
:10228000002304E010780870491C521C5B1C21B12B
:102290001AB1107808B1B342F4D301B10AB90020E1
:1022A000E8E7B34201D2002008702046E2E770B5AB
:1022B00004460D464FF0FF3229462046FFF7D4FF73
:1022C0000646304670BD70B503460C4615460BB940
:1022D000002070BD0CB90020FBE70DB91846F8E7E7
:1022E000194600E0491C11B108780028FAD109B953
:1022F0000020EEE72246002604E010780870491C12
:10230000521C761C21B11AB1107808B1AE42F4D338
:1023100001B10AB90020DCE7002008701846D8E7B0
:1023200070B504460D464FF0FF3229462046FFF7B0
:10233000CAFF0646304670BD2DE9F04305460B4600
:102340009446BCF1000F02D10020BDE8F08335B9FE
:102350000BB90020F9E7187842421046F5E713B9A7
:102360002A781046F1E729461C460F4626467F1C70
:10237000761C4FF0000805E0491C641C7F1C761C8D
:1023800008F10108087894F80090484505D10878CC
:1023900018B117B10EB1E045EED3E04501D10020F0
:1023A000D3E7087894F80090484505D0087894F869
:1023B0000090A0EB09020BE0087808B9002207E0C2
:1023C0002FB90EB9002203E03078424200E03A789B
:1023D0001046BAE770B504460D464FF0FF32294665
:1023E0002046FFF7A9FF0646304670BD2DE9F74F9E
:1023F00082B080460E46049818B9002005B0BDE8AA
:10240000F08FB8F1000F09D10EB90020F6E730784F
:10241000FFF724F907467C422046EFE73EB998F8DB
:102420000000FFF71BF905462C462046E6E7C146AB
:10243000B246C846C3465646CDF804A0D8460BF16E
:10244000010B019E701C0190C84699F80000FFF72F
:1024500005F9054656469AF80000FFF7FFF80746CB
:102460000020009015E009F101090AF1010A0BF1C1
:10247000010B0198401C01900098401C009099F8B5
:102480000000FFF7EBF805469AF80000FFF7E6F8C2
:102490000746BD420BD199F8000040B1BBF1000FD7
:1024A00005D0019818B1049900988842DBD30499AB
:1024B0000098884201D10020A0E7BD4201D0EC1B6A
:1024C00016E00DB9002413E0BBF1000F0AD101980A
:1024D00008B900240CE001990878FFF7BFF8074617
:1024E0007C4205E09BF80000FFF7B8F805462C4653
:1024F000204683E770B504460D464FF0FF3229466B
:102500002046FFF773FF0646304670BD30B50446DF
:102510000B4615460CB9002030BD0BB90020FBE777
:102520002146002201E0491C521C31B1087820B13B
:102530000878A84201D09A42F5D309B90020EBE708
:102540009A4201D30020E7E70878A84201D0002092
:10255000E2E70846E0E770B505460C4622464FF034
:10256000FF312846FFF7D2FF0646304670BD2DE901
:10257000F04305460E46174615B90020BDE8F08326
:102580000EB90020FAE72C46A6F10109494620467B
:10259000FFF752FE804644440CB90020EEE700E00D
:1025A000641EAC4202D02078B842F9D12078B842FB
:1025B00001D00020E2E72046E0E770B505460C4672
:1025C00022464FF0FF312846FFF7D1FF064630463E
:1025D00070BD70B504460D4616460CB9002070BD9E
:1025E0000BB90020FBE721461A4605E00878A8420F
:1025F00000D10E70491C521E19B1087808B1002A8A
:10260000F4D12046EBE7F0B504460D4616464FF0F0
:10261000FF33324629462046FFF7DBFF07463846A0
:10262000F0BD2DE9FF4F06460F4615461EB90020A6
:1026300004B0BDE8F08F0FB90020F9E70DB9002014
:10264000F6E7681C00B101E04FF0FF300390294627
:102650003046FFF7F1FD804638460399FFF7ECFD61
:1026600004460CB93046E3E7444501D90020DFE7D2
:1026700006EB080BBBF1000F01D10020D8E707EBF8
:10268000040BBBF1000F01D10020D1E7A8EB04003F
:1026900002904FF000090020019000BF06EB0900F6
:1026A0000090224639460098FFF746FE8246BAF16E
:1026B000000F01D1012000E00020019009F1010983
:1026C000019810B902988145E8D9BAF1000F01D0FC
:1026D0000020ADE70098ABE770B504460D464FF01B
:1026E000FF3229462046FFF79CFF0646304670BD64
:1026F0002DE9FF4F8DB00F4615461A9E1D9818B94B
:10270000002011B0BDE8F08F002003900490012F4D
:1027100001DA01200390022D01D3242D01D90120DB
:10272000039096B33046FEF735FF029002980128D9
:1027300002D00120039028E0302E26D0A6F13000F0
:10274000C0B207901B98012804D0A6F14100C0B286
:10275000069003E0A6F16100C0B206900A2D02D8EF
:102760000798A84209DB0A2D09D907980A2804D33B
:10277000A5F10A000699884201D9012000E0002055
:1027800005900598012800D103901D9C002004901D
:102790000398002843D1DDF834A0DDF834A0CDF84B
:1027A00030A001200B9007E00B98401CC0B20B90AA
:1027B0000C98B0FBF5F00C900C98A842F4D210984D
:1027C000012800D100E0002009900B9909980844E5
:1027D000B84222DC002001900B98B84201DA0B9835
:1027E00000E038460A903EB1B8460A98391A09986E
:1027F000081AC0B2089006E0DDE90910084400F0AC
:10280000FF08002008900898002808DD302E01D12C
:10281000012000E00020049001E0012003900398D3
:1028200000B1B84644441C9808B100202070641ED2
:102830004FF0000941E00398A8BBBAF1000F02D1A4
:10284000B9F1000F1CD1BAFBF5F005FB10A000F0A8
:10285000FF0BBBF10A0F04D20BF1300004F80109A1
:102860000BE01B98012804D00BF1370004F8010994
:1028700003E00BF1570004F80109BAFBF5FA1AE07E
:102880001098012810D1049808B9019828B104982B
:1028900050B1A8F10100484506D12D2004F80109E6
:1028A0000120019007E003E02EB104F8016902E085
:1028B0003F2004F8010909F10109C145BBD3039880
:1028C00008B100201DE71D981BE72DE9FF5F0546B5
:1028D0000E4617461C46DDE90F9ADDF838800023C6
:1028E0003A46314628468DE81007FFF701FF834638
:1028F000584604B0BDE8F09F2DE9FF4F85B004466F
:1029000089461F46DDE913AB002C02DA6542012639
:1029100001E02546002612983346CDE902ABCDE909
:10292000007049462846079AFFF7E2FE8046404677
:1029300009B0BDE8F08F2DE9FF4F8BB00646894600
:102940001546B9F1000F02D10DF1240900BFC9F8F5
:102950000060189810B907A8189000BF00211898B7
:1029600001701EB900200FB0BDE8F08F012D01D01D
:10297000242D01D90020F6E734462078FEF7F8FD33
:10298000039004E0641C2078FEF7F2FD03900398A6
:102990000128F7D020782B2802D02D280BD103E076
:1029A000641C4FF0000B09E00E98012800D1641C54
:1029B0004FF0010B02E04FF0000B00BF00BF0A9484
:1029C00025B1082D1CD0102D36D11EE020783028DE
:1029D00014D1641C2078582802D078280BD100BF6D
:1029E000102567783846FEF7A7FD8246BAF1010F39
:1029F00000D1641C01E0082500BF00E00A251CE0AE
:102A00002078302800D1641C17E02078302812D1BB
:102A1000641C2078582802D078280AD100BF677833
:102A20003846FEF789FD8246BAF1010F00D1641CD9
:102A300000E000BF00BF00E000BF00BF4FF0000893
:102A400000200290019040E027783846FEF726FDEE
:102A500005900598012836D13846FEF759FD0690B5
:102A60000698012804D1A7F13000C0B208900FE009
:102A70003846FEF739FD04900498012804D1A7F1E7
:102A80005700C0B2089003E0A7F13700C0B2089029
:102A90000898A84214DA029880B9304850F8250006
:102AA000404509D308FB05F80898804408988045FC
:102AB00004D20120029001E001200290641C04E095
:102AC0000120019001E00120019001980028BBD075
:102AD0000298012801D14FF0FF380A98844202D0B1
:102AE000C9F8004001E0C9F80060189880F800B00B
:102AF000404638E7F8B504460D4616460020034622
:102B00003246294600902046FFF715FF0746384613
:102B1000F8BD2DE9FC4105460E46174601A80123E4
:102B20003A46314600902846FFF705FF04469DF8D7
:102B3000040040B9B4F1004F02D36FF0004000E050
:102B40002046804607E0B4F1004F02D34FF000402A
:102B500000E0604280464046BDE8FC81DC58000849
:102B6000AA48802102E0491E002204C00029FAD1AF
:102B7000A74AA84B1A601A46126822F007021A6088
:102B80007047704710B50446204602F0ABFD10BDFB
:102B900010B50446204602F0A6FD10BD10B502F0A7
:102BA000A3FD10BD10B50446204602F09FFD10BDE8
:102BB00010B502F09AFD10BD70B50446101D20F04E
:102BC00007004FF08076051F28462E60051F284617
:102BD0002C60914E051F28462E604FF01236051FBF
:102BE00028462E604FF00336051F28462E604FF012
:102BF0000236051F28462E607610051F28462E60D7
:102C0000051F284629604FF01136051F28462E6003
:102C10004FF01036051F28462E604FF00936051F6D
:102C200028462E604FF00836051F28462E604FF0CC
:102C30000736051F28462E604FF00636051F28462A
:102C40002E604FF00536051F28462E604FF00436E3
:102C5000051F28462E6003F00405002D7ED0F605E2
:102C6000051F28462E606D4E051F28462E606C4EAF
:102C7000051F28462E606B4E051F28462E606A4EA3
:102C8000051F28462E60694E051F28462E60684E97
:102C9000051F28462E60674E051F28462E60664E8B
:102CA000051F28462E60654E051F28462E60644E7F
:102CB000051F28462E60634E051F28462E60624E73
:102CC000051F28462E60614E051F28462E60604E67
:102CD000051F28462E605F4E051F28462E604FF0C8
:102CE0008346051F28462E605B4E051F28462E6032
:102CF0005A4E051F28462E60594E051F28462E6045
:102D0000584E051F28462E60574E051F28462E6038
:102D1000564E051F28462E60554E051F28462E602C
:102D20004FF08246051F28462E60524E051F28464A
:102D30002E60514E051F28462E60504E051F284616
:102D40002E604FF08146051F28462E604C4E051F11
:102D500028462E603602051F284600E009E02E6056
:102D60004FF07E56051F28462E600026051F284678
:102D70002E6070BD10B543480068007C00F0040070
:102D800020B140490968086800F084F83E480068AE
:102D9000007C00F0040020B13B490968086800F09D
:102DA00086F802F0A4FC10BD10B50446204602F0DF
:102DB0009FFC10BD10B502F09CFC10BD10B500F0DA
:102DC0007FF8044631480078401C3049087020469E
:102DD00000F07AF800F084FD00F084FC10BD01469C
:102DE0004A1E4FF0E0235A61294A106820F07F40C4
:102DF00000BF10601A46126942F005021A611A46B5
:102E0000126942F002021A6170470000B804002003
:102E1000B806002044000020CD5200080000F84110
:102E20000000F0410000E8410000E0410000D8410E
:102E30000000D0410000C8410000C0410000B8417E
:102E40000000B0410000A8410000A04100009841EE
:102E50000000904100008841000070410000604186
:102E6000000050410000404100003041000020417E
:102E7000000010410000E0400000C0400000A04001
:102E800000004040740000207C0000206100002011
:102E900020ED00E0EFF3098141B1F1EE101A40F8A6
:102EA000041D20ED200A29490A6810607047B0EC23
:102EB000200A02C8E1EE101A25490A68106070471E
:102EC000EFF3108072B6704780F310887047214886
:102ED0004FF0FF010170002080F309881E4801684F
:102EE00081F308881D48012101701D484FF0805171
:102EF000016062B6FEE71A484FF0805101607047EA
:102F000017484FF080510160704772B6EFF30980A7
:102F100028B1203880E8F00F0C490968086000B536
:102F2000104880475DF804EB0F4810490A7802709A
:102F3000064807490A680260106890E8F00F2030E0
:102F400080F309884EF0F40E62B6704774000020DA
:102F50007C00002022ED00E0440000206E000020F4
:102F600004ED00E0752D00086300002064000020DF
:102F70000146002002E0491C421CD0B20A78002A17
:102F8000F9D170472DE9F04105460E461446002759
:102F9000FB48007820B1112020700020BDE8F081AE
:102FA0002878012808D0022807D0032802D0042856
:102FB00004D100E000BF00BF00BF03E0012020708B
:102FC0000020EBE700BFFFF77BFF07466869306032
:102FD0003068FFF7CDFF80463846FFF775FF0020C9
:102FE00020704046DAE72DE9F04105460E461446CA
:102FF0000027E348007818B112202070BDE8F08166
:103000002878012808D0022807D0032802D00428F5
:1030100004D100E000BF00BF00BF02E0012020702B
:10302000ECE700BFFFF74CFF07466E613846FFF73D
:103030004BFF0020207000BFE0E7F0B5024612F819
:10304000384F95785678383A0B4618680FE000F1FB
:103050000B073F5DB74300F10B0C0CF8047067469B
:103060003F5D17B9877AAF4387721B1D1868002828
:10307000EDD1F0BDC349C44A1278885CC349095CEC
:10308000C04A515C01EBC001C14A1170704710B5D4
:103090000024FFF715FF0446B9480078F8B9BD4889
:1030A0000078E0B9FFF7E6FFBB48B949097850F866
:1030B0002100BA490860B6480078B94909788842C1
:1030C0000DD0B6480068C06B401CB4490968C8639D
:1030D000B4480068401CB3490860FFF70CFF204665
:1030E000FFF7F2FE10BD70B501460024AE4D2D680D
:1030F000EC61AD4C246821620B4618681BE0AA4CB9
:10310000246894F8385000F10B04645DA64D2D68D6
:1031100095F839502C43A44D2D6895F8386000F18E
:103120000B05AC55847AA04D2D6895F83A502C4388
:1031300084721B1D18680028E1D19B4C246894F808
:103140003820924CA45C984D2D6895F83950AC43CA
:103150008E4DAC542C46A45C44B9934C246894F82E
:103160003A50894C2478AC43874D2C7070BD2DE9C2
:10317000FF4F83B081460E461546DDF840800020A3
:1031800000903060CA46DAF8004018E0207806283F
:1031900007D2DFE800F00604050307080AE009E0AB
:1031A00008E000BF00BF012088F80000002007B041
:1031B000BDE8F08F00BF0AF1040ADAF80040002CE5
:1031C000E4D16F48007820B1022088F80000002088
:1031D000EDE77048007820B10D2088F8000000204D
:1031E000E5E70020029001908346CA46DAF80040E5
:1031F000FFF766FE009057E02078062843D2DFE80C
:1032000000F0421526034344208960B12089401E06
:10321000208110C601200290002001C50198401CA9
:1032200080B2019001E04BF0010B38E0606858B1CA
:10323000606801C50020606010C6012002900198FE
:10324000401C80B2019001E04BF0020B27E0676860
:10325000F88AA8B13969081D3861086801C5B968DC
:103260003869884201D178683861F88A401EF8824E
:1032700010C6012002900198401C80B2019001E02C
:103280004BF0040B0BE000BF00BF0098FFF71CFEE3
:1032900000203060012088F80000019887E700BF17
:1032A0000AF1040ADAF80040002CA5D1029801289E
:1032B00009D1002030600098FFF706FE002088F852
:1032C0000000019873E73848006890F834004BF02C
:1032D000800108433449096881F8340000203249EC
:1032E000096881F83500304906980968086348463E
:1032F000FFF7F9FE0098FFF7E7FDFFF7C8FEFFF7BD
:10330000DFFD00902848006890F8350020B10128C2
:1033100019D0022816D100E000BF23480068C46914
:103320002CB110C6002030600120019009E001207E
:103330001D49096881F8350049461B480068FFF7B8
:103340007CFE06E000BF494617480068FFF775FE9F
:1033500000BF00BF1448006890F8350020B1012874
:1033600042D002283FD138E02078062824D2DFE876
:1033700000F0231D1E032425002001C528E00000C5
:1033800061000020705900086500002066000020E0
:103390006400002062000020E80C00207C00002077
:1033A00063000020480000207400002000BFFE4899
:1033B0000068406A01C50BE000BF00BF0098FFF73E
:1033C00083FD00203060012088F800000198EEE6BF
:1033D00000BF002088F800000CE0002001C50E208E
:1033E00088F8000006E000BF002001C50A2088F828
:1033F000000000BF00BF0020EB49096881F83400DD
:10340000E949096881F83500E7490968C861E64972
:1034100009680862E449096848620098FFF754FDAA
:103420000198C4E67CB5002514E06946284601F001
:103430003EFE064666B9DD4850F8254044B1012CF1
:1034400006D0D4E9020100EB8100A0640198E06499
:10345000681CC5B23F2DE8D97CBD00BF00BF02E0AB
:10346000142001F04BFFD24800780028F8D0D14852
:1034700000686421B0FBF1F0CE490860084600689E
:1034800028B90020CC490870FF2001F050FEFFF75A
:1034900017FD0446C748006864214843C7490860CF
:1034A0002046FFF711FD00BFFFF70AFD0446C348A1
:1034B0000068C34908600020C04908602046FFF743
:1034C00003FDBF480068BB490968B0FBF1F0C0F1DB
:1034D0006400B9490870FFF76BFBFFF7A3FF0A20F0
:1034E00001F00CFFE0E700B587B003200021802247
:1034F000B44BCDE90132CDE903104FF6FE703E2307
:10350000B14A0090AFF2AD0001F0E1FB06AAAFA115
:103510003E2001F04CFD07B000BD002400BF00BFFD
:10352000FFF7CEFC0446A5480068401CA34908608C
:103530002046FFF7C9FCFFF731FBF1E700B587B084
:10354000032000218022A54BCDE90132CDE90310F3
:103550004FF6FF703F23A24A0090AFF2410001F006
:10356000B6FB06AA9FA13F2001F021FD07B000BDD8
:1035700004E0002200F8012B4A1E91B20029F8D184
:10358000704770B54FF4F0719A48FFF7F1FF0024CF
:1035900011E0601C85B204EB4400964901EBC003C6
:1035A00005EB450001EBC006002018705E6092A09C
:1035B0005861601C84B2132CEBD304EB44008D499A
:1035C00001EBC0030020187058608BA058610846BA
:1035D0008A49086070BD70B54FF4F2618848FFF702
:1035E000C7FF4FF480717148FFF7C2FF002413E05A
:1035F000601CC5B204EB440000EBC400804901EB41
:10360000C00305EB450000EBC50001EBC0065E61A1
:1036100079A01865601CC4B2152CE9D304EB4400F2
:1036200000EBC400764901EBC0030020586172A092
:10363000186500207349086071487349086070BDBF
:103640000021724A1170002004E00021704A1154D8
:10365000411CC8B20828F8D300216E4A11706E4A86
:1036600011706E4A1160504A1160704700206C4919
:1036700008606C4908706C4908706C4908706C49A6
:1036800008706C4908604D4908604D490860494917
:1036900008604749087068490870704710B5FFF71F
:1036A0005FFAFFF7E3FFFFF7CBFFFFF794FFFFF7AA
:1036B00068FF00F0C1FE01F0C4F9FFF73FFFFFF71C
:1036C00012FFFFF75EFA10BD59480078012808D1B3
:1036D00054480078FF2804D252480078401C5149D1
:1036E0000870704710B5002451480078012830D187
:1036F000FFF7E6FB04464B48007820B149480078C4
:10370000401E4849087047480078F8B94648007894
:10371000E0B9FFF7AFFC25483F49097850F8210090
:103720003E4908603C4800783A49097888420DD003
:103730003A480068C06B401C38490968C8633D4876
:103740000068401C3B490860FFF7DAFB2046FFF7A2
:10375000BBFB10BD10B5002435480078012811D1FD
:10376000FFF7AEFB04462F48007840B92E4800789A
:10377000FF2804D22C480078401C2B4908702046B2
:10378000FFF7A2FB10BD10B50024294800780128DE
:103790006ED1FFF795FB04462248007810B9224805
:1037A00000784BE061E0000074000020E80C00208D
:1037B000600000205800002054000020700000200D
:1037C0005C000020E8080020E40A002075432F4F29
:1037D000532D49492053746174000000E80A002009
:1037E000E40C002075432F4F532D49492049646C48
:1037F00065000000B80600203F0000004C000020DB
:10380000E80D0020800000207800002065000020E6
:103810006600002063000020640000207C0000207F
:103820009000002061000020620000206F00002056
:103830006E000020480000208C00002088B1F9486C
:103840000078401EF74908700846007828B92046DD
:10385000FFF73AFBFFF71BFC0AE02046FFF734FBBB
:1038600006E02046FFF730FB02E02046FFF72CFB86
:1038700010BD10B5EC48007890B9FFF7FBFBEB48A2
:103880000078EB490870EB48E849097850F82100C6
:10389000E949086008460068E8490860FFF717FB37
:1038A00010BD10B50024022001F028FDFFF708FB31
:1038B00004460020E24908602046FFF705FB0A2085
:1038C00001F01CFDFFF7FCFA0446DD480068DD4905
:1038D00008600120DC4908702046FFF7F5FA10BDAA
:1038E00070B50026FFF766FAFFF7EAFA0646D748F2
:1038F0000068401CD54908603046FFF7E5FACA4821
:103900000078012853D1D248007820B1012804D092
:10391000022809D103E001250BE0002509E001257B
:103920000120CB49087004E001250020C849087037
:1039300000BF00BF05B970BDC648046833E0FFF79B
:10394000BFFA0646206B50B3206B401E2063206BED
:1039500028BB94F8340000F0370040B114F8340F5D
:1039600000F0C800207001206070343C02E00020AC
:1039700084F8350094F8340000F0080078B9383441
:10398000A078B54909780843B34908702078B3494D
:10399000085C6178084314F83819B04A50546469D7
:1039A0003046FFF791FA94F836003F28C7D100BFA0
:1039B000C1E747F21B207047704710B590F83820D8
:1039C00001F10B039B5C90F83940A34301F10B0418
:1039D000A35423469B5C23B98B7A90F83A40A343C7
:1039E0008B720023C36110BD2DE9F04F05460F46D1
:1039F00090469946A87A9A490E5C05F10B00805DC5
:103A000011F800B00BEBC60000F0FF0A894850F82F
:103A10002A4000202434E0602760207C20EA08004F
:103A2000207484F81190207C243C00F0080068B9D0
:103A300094F83A008849097808438749087087480C
:103A4000805D94F8391008438449885529462046FA
:103A5000FFF7B3FF206A20B12046216AFFF7EDFA95
:103A6000E5615046BDE8F08F10B5744A1268D06128
:103A7000724A126892F8383000F10B02D25C6F4B38
:103A80001B6893F839301A436C4B1B6893F8384025
:103A900000F10B031A55827A684B1B6893F83A3091
:103AA0001A438272654A126892F838106B4A525C67
:103AB000624B1B6893F839309A43684B5A541A4644
:103AC000525C42B95D4A126892F83A30624A127802
:103AD0009A43614B1A7010BD014600228A72002081
:103AE00005E0002301F10B021354421CD0B2082858
:103AF000F7D3704705E011F8013B00F8013B531E76
:103B00009AB2002AF7D170472DE9F84F05460F46C3
:103B100090469946DDE90AAB00200090FFF7D0F906
:103B2000009050480468002C7BD01C3454F8080CDA
:103B30004C4908600098FFF7C7F944F81C7CA5764B
:103B4000002020766076606144F818BC44F810AC20
:103B500044F8148C0C9824F80C0C24F80A9C0020CF
:103B6000E077E810207705F00700E076217F01205C
:103B70008840A077E17E01208840607700202060A7
:103B80006060E060A0602062A0626062E06220632A
:103B9000AFF29C3060631C3C002606E0002104F17B
:103BA000540040F82610701CC6B2002EF6D02046F5
:103BB000FFF7FAF8FFF784F900901E4840F8254017
:103BC0000098FFF781F92046FEF7DCFFFFF778F950
:103BD00000902048006860610020A0611D480068D6
:103BE00010B11C48006884611A4804603834A07819
:103BF0001949097808431849087020781749085C62
:103C00006178084314F83819144A5054164800785B
:103C1000401C154908700098FFF756F90020BDE8D0
:103C2000F88F23E0620000206E0000206400002076
:103C300063000020E80C00207C00002074000020BD
:103C4000700000205800002060000020900000203C
:103C50008400002080000020650000206600002015
:103C600070590008780000206F0000200098FFF7CE
:103C70002BF94220BDE8F88F2DE9F05F04460F468E
:103C800091461E464FF0000B2078052804D00120F5
:103C900030700020BDE8F09F09F0800ABAF1000FF3
:103CA00004D029F080094FF0010801E04FF000082E
:103CB00000203070FFF704F98346B9F1000F2CD0D3
:103CC000B9F1010F3BD0B9F1020F03D0B9F1030FE5
:103CD00046D111E0208900EA0705BD4206D1B8F1BE
:103CE000010F05D12089A843208101E070203070A8
:103CF0005846FFF7E9F83AE0208900EA070535B1B0
:103D0000B8F1010F05D12089A843208101E070207E
:103D100030705846FFF7D8F829E0208927EA0005D7
:103D2000BD4206D1B8F1010F05D120892843208179
:103D300001E0702030705846FFF7C6F817E0208980
:103D400027EA000535B1B8F1010F05D120892843D4
:103D5000208101E0702030705846FFF7B5F806E08A
:103D60005846FFF7B1F800256F20307000BF00BF44
:103D700028468FE72DE9F04106460D460027FC480E
:103D8000007820B1102028700020BDE8F081FFF7F6
:103D900097F80746F748046884B100684068F54919
:103DA000086005202070268100206060F2A0E0609D
:103DB0003846FFF789F80020287004E03846FFF7FE
:103DC00083F8722028702046DFE730B501464A6844
:103DD00008682AB9CC68606028B10025456002E017
:103DE000106000B142608B6800259D6230BD2DE9F6
:103DF000F041064688461746B468002044F8300F64
:103E000024F8048C207900F0DF002071677120799C
:103E1000303C88B93834A078D84909780843D74964
:103E200008702078D649085C6178084314F838197E
:103E3000D34A5054012500E000253046FFF7C5FF66
:103E40002846BDE8F0812DE9F0470446894615462D
:103E50004FF0000AC648007820B10F202870204695
:103E6000BDE8F0872078052803D00120287020467F
:103E7000F6E7FFF725F88246606808B1012700E001
:103E80000027B9F1000F03D0B9F1010F3DD119E0BE
:103E90008FB9B9A0E06000202070B648006860606B
:103EA00000202081B34804605046FFF70DF8002041
:103EB0002870002605E05046FFF706F849202870D4
:103EC000264629E0D4F8048006E00222002140467C
:103ED000FFF78DFFD8F80080B8F1000FF5D1A6A04C
:103EE000E06000202070A34800686060002020810E
:103EF000A04804605046FEF7E7FF012F01D1FFF70D
:103F0000C6F800202870002606E05046FEF7DCFFC9
:103F100007202870264600BF00BF3046A0E72DE9E5
:103F2000F04105460E46144600279148007820B11E
:103F3000112020700020BDE8F081FEF7C1FF074688
:103F40002878052806D03846FEF7BEFF01202070ED
:103F50000020F0E7E86830603068FFF709F8804635
:103F60003846FEF7B1FF002020704046E3E72DE918
:103F7000F04105460E46144600277D48007818B1EA
:103F800012202070BDE8F081FEF79AFF07462878DE
:103F9000052805D03846FEF797FF01202070F1E78D
:103FA000EE603846FEF790FF0020207000BFE9E782
:103FB000F0B51446059E734F3F6897F8347047F08C
:103FC0002007DFF8C0C1DCF800C08CF8347000278F
:103FD000DFF8B0C1DCF800C08CF83570694F3F687D
:103FE0003E63684F3F68B9620C828B74654F3F68CF
:103FF0008F6047680F6000274F60C860456805B153
:10400000696041605F4F3F6897F838205C4FBF5C44
:10401000DFF870C1DCF800C09CF839C027EA0C0753
:10402000DFF85CC10CF802706746BF5C5FB9554FA2
:104030003F6897F83AC0514F3F7827EA0C07DFF8FE
:104040003CC18CF80070F0BD2DE9F04F89B00546F9
:104050000F4691469A46129E0020029044480078EE
:1040600028B102203070002009B0BDE8F08F46482A
:10407000007818B10D2030700020F5E72878052869
:1040800003D0012030700020EEE709F0800BBBF177
:10409000000F04D009F07F094FF0010801E04FF054
:1040A0000008FEF70DFF0290B9F1000F4AD0B9F1F8
:1040B000010F78D0B9F1020F03D0B9F1030F71D11C
:1040C00020E0288900EA0704BC420FD1B8F1010FB3
:1040D00002D12889A04328812A4800688485029853
:1040E000FEF7F2FE002030702046BDE74B463A4610
:1040F00004A92846CDF800A0FFF75AFF0298FEF762
:10410000E3FE78E0288900EA07047CB1B8F1010FEA
:1041100002D12889A04328811A4800688485029822
:10412000FEF7D2FE0020307020469DE74B463A460F
:1041300004A92846CDF800A0FFF73AFF0298FEF741
:10414000C3FE58E0288927EA0004BC421ED1B8F11A
:10415000010F02D12889204328810A4800688485FC
:104160000298FEF7B1FE0020307020467CE71AE08E
:1041700061000020500000203F000000650000208A
:104180006600002074000020620000204B463A4682
:1041900004A92846CDF800A0FFF70AFF0298FEF711
:1041A00093FE28E01FE0288927EA00047CB1B8F1DB
:1041B000010F02D1288920432881B34800688485F3
:1041C0000298FEF781FE0020307020464CE74B46F7
:1041D0003A4604A92846CDF800A0FFF7E9FE029868
:1041E000FEF772FE07E00298FEF76EFE00246F20D5
:1041F0003070204638E700BFFEF749FFFEF760FE4B
:104200000290A148006890F8350020B39E480068ED
:1042100090F83500039000209B49096881F835002B
:1042200004A8FFF7D2FD00209749096881F83400FF
:104230000298FEF749FE00240398012805D00228C1
:1042400002D10E20307003E000BF0A20307000BFA2
:1042500000BF204608E78C480068848DB8F1010F44
:104260001ED1B9F1000F0ED0B9F1010F0CD0B9F188
:10427000020F03D0B9F1030F0AD100E000BF288973
:10428000A04328810BE000BF28892043288106E055
:104290000298FEF719FE6F2030700020E4E600BFA0
:1042A0000298FEF711FE002030702046DCE670B563
:1042B0000025FEF705FE054673480068848D2846F4
:1042C000FEF702FE204670BD2DE9FC5F04468946DC
:1042D00092461E46002000902078052804D0012038
:1042E00030700020BDE8FC9FFEF7EAFD0090BAF1B7
:1042F000000F03D0BAF1010F0AD104E0208920EAAF
:10430000090020810BE0208940EA0900208106E0B5
:104310000098FEF7D9FD712030700020E2E700BF61
:104320004FF0000B656859E0A87C50B301283BD0E2
:10433000022802D0032848D112E02089298A00EA05
:104340000107288AB8420AD1002239462846FFF7D9
:104350004EFD8046B8F1010F01D14FF0010B3BE05B
:104360002089298A00EA010757B1002239462846E8
:10437000FFF73DFD8046B8F1010F01D14FF0010B71
:104380002AE0288A218920EA0107288AB8420AD12E
:10439000002239462846FFF72AFD8046B8F1010F72
:1043A00001D14FF0010B17E0288A218920EA01078B
:1043B00057B1002239462846FFF719FD8046B8F16B
:1043C000010F01D14FF0010B06E00098FEF77CFDD4
:1043D0006F203070002085E700BF2D68002DA3D12D
:1043E0000098FEF771FDBBF1010F01D1FEF74FFE02
:1043F000FEF766FD0090208901900098FEF764FDAD
:104400000020307001986DE72DE9F04104460D461B
:1044100000272078052804D0012028700020BDE85E
:10442000F081FEF74DFD074626893846FEF74CFD24
:10443000002028703046F2E72DE9F0415021134862
:10444000FFF796F800250EE0681C86B20F4800EBD7
:10445000051400EB0617002020706760AFF2E8201B
:10446000E060681C85B2042DEED3084800EB05140B
:10447000002020706060AFF20030E0600348044923
:104480000860BDE8F081000074000020980800205A
:10449000500000202DE9F04106460D464FF000087F
:1044A0003078022804D0012028700020BDE8F08177
:1044B000FEF706FD80467468E08A78B12169081D20
:1044C00020610F68E08A401EE082A168206988426E
:1044D00001D1606820610020287002E01F20287050
:1044E00000274046FEF7F0FC3846DFE72DE9F041B3
:1044F00006460F464FF00008F748007810B100203C
:10450000BDE8F081FEF7DCFC8046F44804680068F2
:1045100020B1F24800684068F04908604046FEF764
:10452000D3FCFCB1FEF7CCFC8046ED480568D5B164
:1045300000680068EA4908604046FEF7C5FC6E6006
:1045400006EB8700A860EE602E61AF820020E88253
:1045500002202070002020816560E2A0606120467A
:10456000FFF7BAFA08E0DD4800686060DB480460E5
:104570004046FEF7A9FC00242046C1E72DE9F0479C
:104580000446894615464FF0000A2078022804D0D8
:10459000012028702046BDE8F087CF48007818B188
:1045A0000F2028702046F6E7FEF78AFC8246A07AA4
:1045B00010B14FF0010801E04FF00008B9F1000F11
:1045C00003D0B9F1010F49D121E0B8F1000F17D1A3
:1045D000C4A060616668C24800683060C048066078
:1045E00000202070BD480068606000202081BB482A
:1045F00004605046FEF768FC00202870002705E0A4
:104600005046FEF761FC4920287027462DE005E062
:104610000223042200212046FFF7E6F9A07A0028B1
:10462000F6D1B0A060616668AD4800683060AC4803
:10463000066000202070A94800686060002020818A
:10464000A64804605046FEF73FFCB8F1010F01D1C7
:10465000FEF71DFD00202870002706E05046FEF7FB
:1046600033FC07202870274600BF00BF384692E77A
:1046700070B505460026FEF723FC06466C686068A8
:10468000E060606820610020E0823046FEF71CFC9C
:10469000002070BD2DE9F0470746884615464FF0CB
:1046A00000093878022804D0012028700020BDE8D5
:1046B000F0878948007818B1022028700020F6E7BA
:1046C0008948007818B10D2028700020EFE7FEF728
:1046D000F7FB81467C68E08A98B12169081D20615A
:1046E0000E68E08A401EE082A1682069884201D1FC
:1046F000606820614846FEF7E7FB002028703046DE
:10470000D5E77A48006890F8340040F00400774913
:10471000096881F8340000207449096881F835007F
:1047200072480068C0F830803846FFF79DF9484667
:10473000FEF7CAFBFEF7ABFCFEF7C2FB81466B48F7
:10474000006890F8350020B101280DD002280AD168
:1047500005E066480068466A002028700DE00026E3
:104760000E20287009E000BF394660480068FFF756
:1047700024F900260A20287000BF00BF00205B49F2
:10478000096881F834005949096881F835005749AA
:104790000968C8615549096808625449096848624E
:1047A0004846FEF791FB304681E72DE9F04104468B
:1047B0000F4615464FF000082078022804D001204B
:1047C00028700020BDE8F081FEF77AFB8046A07AD1
:1047D00020B300267FB1012F0CD107E00223042271
:1047E00000212046FFF700F9701CC6B2A07A00280D
:1047F000F4D109E000BF0223042200212046FFF784
:10480000F3F8701CC6B200BF00BF4046FEF75CFB69
:10481000FEF73DFC0E2028703046D3E74046FEF7F9
:1048200053FB0020287000BFCCE72DE9F04105467E
:104830000E4600272878022802D00120BDE8F0812A
:10484000FEF73EFB0746A87A60B1002304223146FA
:104850002846FFF7C9F83846FEF736FBFEF717FC87
:104860000020EBE76C68E08AA18A884204DB3846C6
:10487000FEF72AFB1E20E1E7E168081DE0600E60FC
:10488000E08A401CE082D4E90210884201D16068CD
:10489000E0603846FEF718FB0020CFE72DE9F04135
:1048A00005460E4600272878022802D00120BDE8E0
:1048B000F081FEF705FB0746A87AC8B10023042261
:1048C00031462846FFF790F83846FEF7FDFAFEF726
:1048D000DEFB0020EBE70000610000204C00002020
:1048E000880000203F0000006200002074000020CB
:1048F0006C68E08AA18A884204DB3846FEF7E4FA55
:104900001E20D4E761682069884201D1A068206137
:104910002069001F206120690660E08A401CE08257
:104920003846FEF7D1FA0020C1E72DE9F0410546EF
:104930000F4616464FF000082878022802D00120C2
:10494000BDE8F081FEF7BCFA8046A87AE8B106F02F
:10495000010050B105E00023042239462846FFF744
:1049600043F8A87A0028F6D105E00023042239464E
:104970002846FFF739F84046FEF7A6FA06F004008D
:1049800008B9FEF784FB0020DAE76C68E08AA18AA8
:10499000884204DB4046FEF797FA1E20D0E706F077
:1049A000020058B161682069884201D1A068206185
:1049B0002069001F20612069076009E0E168081D87
:1049C000E0600F60D4E90210884201D16068E060C5
:1049D000E08A401CE0824046FEF776FA0020AFE70E
:1049E0002DE9F04705460C464FF0000A28780228CA
:1049F00002D00120BDE8F087FEF762FA8246A87A6D
:104A0000207405F10B0804F10809002705E018F8E7
:104A1000010B09F8010B781CC7B2082FF7D36E6899
:104A2000F08A18B130690068206001E00020206041
:104A3000F08AA080B08AE0805046FEF745FA002058
:104A4000D8E72DE9F04160211048FEF791FD0024E0
:104A50000DE0601C86B204EB44000C4901EBC0057C
:104A600006EB460001EBC0072F60601C84B2032CEC
:104A7000EFD304EB4400054901EBC005002028609A
:104A8000084603490860BDE8F08100007815002061
:104A9000880000202DE9F34F85B088460020019062
:104AA000FEF70EFA0190FE4850F8280030B1019848
:104AB000FEF70AFA282007B0BDE8F08F0598FF2816
:104AC00004D1F848006890F836000590F44905983C
:104AD00051F8205025B90198FEF7F6F92920EAE7A8
:104AE000012D04D10198FEF7EFF94320E3E74FEAE7
:104AF000E80708F0070003900120B84000F0FF0924
:104B000001210398814001F0FF0A0021E44A059841
:104B100042F82010104640F8285095F8386095F873
:104B20003A00029095F839B0DF48805D00EA0B004A
:104B3000D0B1DD48805D20EA0B00DB49885508468E
:104B4000805D28B9D948007802998843D749087010
:104B5000D648007840EA0900D4490870D248C05DC0
:104B600040EA0A00D049C855EC69D4B104F10B0001
:104B7000805D20EA0B0004F10B0188550846805D3A
:104B800018B9A07A02998843A072A07A40EA090075
:104B9000A07204F10B00C05D40EA0A0004F10B01B1
:104BA000C855286A30B3286A0490049804681FE046
:104BB00004F10B00805D20EA0B0004F10B01885525
:104BC0000846805D18B9A07A02998843A072A07A3D
:104BD00040EA0900A07204F10B00C05D40EA0A003F
:104BE00004F10B01C8550498001D04900498046852
:104BF000002CDDD185F8368085F83870039885F86B
:104C0000370085F83A9085F839A00198FEF75CF9ED
:104C1000A7480078012801D1FEF739FA00204AE7B9
:104C20002DE9FE4F06460F4690461C464FF0000900
:104C3000FEF746F981469F48007828B14846FEF7BE
:104C400043F93C20BDE8FE8F954850F8240060BB36
:104C50000120934941F824004846FEF735F9002326
:104C6000424639463046FDF7A7FF824600200090B5
:104C7000019003460246514602902046FEF744FF4B
:104C8000054635B98A48007801280CD1FEF7FFF9AE
:104C900009E0FEF715F981460020814941F824001A
:104CA0004846FEF711F92846CCE74846FEF70CF9CE
:104CB0002820C7E702F0010343B102F002032BB141
:104CC00002E0491E002308C00029FAD170472DE9EF
:104CD000F04F85B081468A4693461C46DDE90F7841
:104CE000129D00200390FEF7EBF8039071480078C6
:104CF00030B10398FEF7E8F83C2005B0BDE8F08F2E
:104D0000674850F8240088BB0120654941F8240019
:104D10000398FEF7D9F82A4641463846FFF7CAFFFE
:104D20002B465A4651464846FDF746FF04901198D7
:104D3000CDE9008002953A4620460E9B0499FEF785
:104D4000E3FE064636B95A48007801280CD1FEF732
:104D50009EF909E0FEF7B4F803900020504941F8AD
:104D600024000398FEF7B0F83046C6E7FFE7039843
:104D7000FEF7AAF82820C0E72DE9F04105460027F4
:104D80004C48007810B14020BDE8F0813F2D01D1A2
:104D90003E20F9E7FEF794F80746FF2D03D141487E
:104DA000006890F836503E4850F8254024B93846FF
:104DB000FEF78AF84320E7E7012C04D13846FEF7D6
:104DC00083F83D20E0E714F8380F3749085C617834
:104DD00088432178344A505414F838091146085C45
:104DE00030B994F83A103148007888432F49087058
:104DF000E06918B12046E169FEF7DFFD206A18B1CD
:104E00002046216AFEF719F9A66A16B13046FEF768
:104E1000DCFF0020206384F8340084F83500264845
:104E20000078FF2804D224480078401C22490870EA
:104E30003846FEF749F8FEF7BFFDFEF741F8074692
:104E40001D48007820B11C480078401E1A4908709F
:104E50002046FDF79DFE19480078401E174908704E
:104E600000200F4941F82500A06930B90020616990
:104E7000886113496069086005E0D4E9050148616B
:104E8000D4E9051088610F48006860610D4804602E
:104E90000DA020653846FEF717F80548007815E0A4
:104EA000E80C00207400002066000020650000204F
:104EB0006E00002061000020620000206F000020D2
:104EC00080000020780000203F000000012801D170
:104ED000FEF7DDF8002057E72DE9F04104460027F2
:104EE0003F2C02D13E20BDE8F081FF2C0BD1FDF715
:104EF000E7FF0746FA48006890F83B603846FDF740
:104F0000E3FF3046EFE7FDF7DBFF0746F54850F8D3
:104F1000245025B93846FDF7D7FF4320E3E7012D9C
:104F200004D13846FDF7D0FF3D20DCE73F2085F86F
:104F30003B003846FDF7C8FF0020D4E72DE9F047D5
:104F400006460F4614464FF00008E748007820B1A7
:104F5000112020700020BDE8F087FDF7B1FF8046EA
:104F6000FF2E03D1DE48006890F83660DD4850F827
:104F7000265035B94046FDF7A7FF4320207000209A
:104F8000E9E7012D06D14046FDF79EFF4320207042
:104F90000020E0E7286D38603868FDF7E9FF8146BA
:104FA0004046FDF791FF002020704846D3E72DE9E9
:104FB000F04106460F4614464FF00008CA480078F4
:104FC00018B112202070BDE8F081FDF779FF80460E
:104FD000FF2E03D1C248006890F83660C14850F8EF
:104FE00026502DB94046FDF76FFF43202070EAE7B9
:104FF000012D05D14046FDF767FF43202070E2E711
:105000002F654046FDF760FF0020207000BFDAE703
:1050100070B505460026FDF753FF0646B14850F827
:10502000254024B93046FDF74FFF462070BD012CC6
:1050300004D13046FDF748FF4320F7E794F83400E9
:1050400000F0080070B314F8340F00F0F70020707F
:1050500014F8340900F03700F8B9206BC8B93834B7
:10506000A078A24909780843A04908702078A0498F
:10507000085C6178084314F838199D4A505430464A
:10508000FDF722FF9B480078012809D1FDF7FFFFBB
:1050900006E03046FDF718FF02E03046FDF714FF4A
:1050A0000020C3E73046FDF70FFF4420BEE72DE99F
:1050B000F04707460D464FF0000A00202860686060
:1050C000FDF7FEFE8246FF2F03D18548006890F869
:1050D0003670844850F827402CB95046FDF7F4FE4E
:1050E0004320BDE8F087012C04D15046FDF7ECFECB
:1050F0004320F6E7207C00F0010020B95046FDF780
:10510000E3FE4520EDE70026D4F80C90D4F80880A3
:105110005046FDF7D9FE00E0761C58F8041B002924
:10512000FAD02E60A9EB060068600020D9E72DE9CF
:10513000F04105464FF00008FDF7C2FE8046FF2D06
:1051400005D16748006890F83650012608E06448A9
:10515000006890F83600A84201D1012600E0002640
:10516000604850F825402CB94046FDF7ADFE482078
:10517000BDE8F081012C04D14046FDF7A5FE432097
:10518000F6E794F838705A48C05D94F839108843AF
:105190005749C8550846C05D30B994F83A1053488D
:1051A000007888435149087094F8340040F00800B2
:1051B00084F834004046FDF787FE012E01D1FDF74B
:1051C00066FF0020D4E72DE9F04105460E46002792
:1051D000FDF776FE0746FF2D03D14148006890F8A1
:1051E0003650404850F825402CB93846FDF76CFE43
:1051F0002920BDE8F081012C04D13846FDF764FE7A
:105200004320F6E7582221463046FEF773FC384625
:10521000FDF75AFE0020ECE72DE9F04704460E4664
:1052200017464FF00009FDF74BFE8146FF2C02D1D7
:105230002B48056802E02B4850F8245005F1540033
:1052400050F826804846FDF73FFE00203870404663
:10525000BDE8F08770B504460026FDF731FE06462E
:105260002548007830B1962020703046FDF72CFE9E
:10527000012070BD204805780078401C1E49087048
:105280003046FDF721FE002020702846F1E72DE989
:10529000F04704460E46174698464FF00009FDF7C2
:1052A0000FFE8146FF2C02D10D48056802E00D4833
:1052B00050F8245005F1540040F826704846FDF798
:1052C00003FE002088F80000BDE8F08710B5044810
:1052D0000068FDF767FCFF20FFF74EFD10BD0000E2
:1052E00074000020E80C0020610000206500002010
:1052F000660000206E0000208C00002070B505467E
:1053000000266348007800B170BD6248007800B1A3
:10531000FAE71DB3FDF7D4FD06465F48006890F834
:1053200038405E48005D5C49096891F8391088434F
:105330005A4908550846005D40B95748006890F83A
:105340003A10574800788843554908705248006819
:1053500005633046FDF7B8FDFDF799FE00BFD3E7C2
:105360002DE9F04104460D4616461F464848007890
:1053700010B15520BDE8F0814648007808B13220D0
:10538000F8E7781D642148434FF47A71B0FBF1F1DE
:105390004FF461606043C5EB051200EB82003044BE
:1053A00000EBC00202EB001001EB80084046FFF763
:1053B000A5FF0020DEE770B5054600263F2D01D38E
:1053C0002A2070BDFDF77CFD0646364850F8254082
:1053D00024B93046FDF778FD4320F2E7012C04D1D3
:1053E0003046FDF771FD4320EBE7206B20B93046D6
:1053F000FDF76AFD5020E4E70020206394F83400B4
:1054000000F0370040B114F8340F20F0370020705E
:1054100001206070343C02E0002084F8350094F8EC
:10542000340000F00800A8B93834A0781C49097885
:1054300008431B49087020781849085C61780843C4
:1054400014F83819154A50543046FDF73DFDFDF764
:105450001EFE02E03046FDF737FD0020B1E770B5D3
:105460000025FDF72DFD05460F4804682846FDF789
:105470002BFD204670BD70B504460025FDF720FDCC
:105480000546094804602846FDF71EFD70BD000072
:1054900061000020620000207400002066000020EF
:1054A00065000020E80C0020900000201FB5684631
:1054B000FBF751FA019804B010BD10B5FFF7F6FFE5
:1054C00004463148006840F080702F490860002091
:1054D0002E4948600846006840F0010008602046F8
:1054E000FBF77DFD10BD2949486870472DE9F0475D
:1054F0008246FFF7DBFF4FF000098046244A002375
:105500004046494600F0F6F8064632460B465046FD
:10551000002100F0EFF804460D4620462946BDE87C
:10552000F0872DE9F041FFF7C1FF05466420B5FB88
:10553000F0F42146481EB0F1807F00D31CE0481EE5
:105540004FF0E022506150170F22002808DA1307AD
:105550001F0E0D4BE43B00F00F06361F9F5503E076
:1055600013071E0E0B4B1E5400BF00204FF0E0220D
:1055700090610720106100BFBDE8F08110B5FFF712
:10558000D0FF00F02DF810BDFCED00E0001000E0B1
:1055900040420F0000E400E01CB501215020FBF761
:1055A000ABFA1820009001208DF8040000208DF83F
:1055B000060003208DF8050001208DF807006946DC
:1055C0000948FAF7FBFF1CBD10B518210648FBF788
:1055D00071F810BD10B518210348FBF76DF810BD28
:1055E00010B5FFF7D9FF10BD00100240704700BF93
:1055F000FEE700BFFEE700BFFEE700BFFEE7704723
:105600007047000005E00023012219461846FFF705
:10561000A7FEF8E700B587B0032000214FF48072A1
:10562000264BCDE90132CDE9031005200346244A7B
:1056300000902448FFF74BFB06AA23A10320FFF7A5
:10564000B6FC07B000BD4FF4A060FAF7C1FEFFF74B
:1056500095FFFFF7DFFF0FE0FFF7B6FF0023012202
:1056600019461846FFF77CFEFFF7B4FF002301221E
:1056700019461846FFF774FEEEE700B587B0032021
:1056800000214FF48072124BCDE90310CDE90132B5
:10569000009003460F4A1048FFF719FB06AA0FA116
:1056A0000320FFF784FC07B000BD10B5FDF7F6FF3F
:1056B000FFF7E3FFFEF7DDF8002010BDD81900204A
:1056C000D41D00200556000849646C6500000000E8
:1056D000D8150020D41900204756000854455354CB
:1056E0000000000070477047704770477047704770
:1056F000704770472DE9F05F0546002092469B46B3
:1057000088460646814640241BE0284641464746D7
:10571000224600F02FF853465A46C01A914110D342
:1057200011461846224600F016F82D1A67EB0108BC
:105730004F4622460120002100F00DF817EB00092A
:105740004E41201EA4F10104DFDC484631462A46C2
:105750004346BDE8F09F202A04DB203A00FA02F11C
:10576000002070479140C2F1200320FA03F319434F
:1057700090407047202A04DB203A21FA02F00021F1
:10578000704721FA02F3D040C2F120029140084351
:1057900019467047064C074D06E0E06840F00103EB
:1057A00094E8070098471034AC42F6D3FAF7F0FCBF
:1057B000705A0008905A000802E008C8121F08C179
:1057C000002AFAD170477047002001E001C1121F82
:1057D000002AFBD1704700000807060605050505ED
:1057E0000404040404040404030303030303030381
:1057F0000303030303030303020202020202020281
:105800000202020202020202020202020202020278
:105810000202020202020202010101010101010170
:105820000101010101010101010101010101010168
:105830000101010101010101010101010101010158
:105840000101010101010101010101010101010148
:105850000101010101010101000000000000000040
:105860000000000000000000000000000000000038
:105870000000000000000000000000000000000028
:105880000000000000000000000000000000000018
:105890000000000000000000000000000000000008
:1058A00000000000000000000000000000000000F8
:1058B00000000000000000000000000000000000E8
:1058C00000000000000000000000000000000000D8
:1058D000000000000000000078563412FFFFFFFFB8
:1058E000FFFFFFFFFFFFFF7F55555555FFFFFF3FB0
:1058F00033333333AAAAAA2A24499224FFFFFF1F75
:105900001CC7711C9999991974D14517555555158E
:10591000133BB1139224491211111111FFFFFF0F14
:105920000F0F0F0F8EE3380E5E43790DCCCCCC0CED
:105930000CC3300CBAE8A20B2C64210BAAAAAA0A49
:10594000A3703D0A899DD8095E427B0949922409CA
:10595000B0DCD3088888880884104208FFFFFF075E
:105960007CF0C1078787870707755007C7711C0739
:10597000000001000200010003000100020001001C
:105980000400010002000100030001000200010008
:1059900005000100020001000300010002000100F7
:1059A00004000100020001000300010002000100E8
:1059B00006000100020001000300010002000100D6
:1059C00004000100020001000300010002000100C8
:1059D00005000100020001000300010002000100B7
:1059E00004000100020001000300010002000100A8
:1059F0000700010002000100030001000200010095
:105A00000400010002000100030001000200010087
:105A10000500010002000100030001000200010076
:105A20000400010002000100030001000200010067
:105A30000600010002000100030001000200010055
:105A40000400010002000100030001000200010047
:105A50000500010002000100030001000200010036
:105A60000400010002000100030001000200010027
:105A7000905A00080000002094000000B857000869
:105A8000245B00089400002044210000C85700084F
:105A9000007A030A00000000000000000102030475
:105AA00006070809000000000102030401020304C4
:105AB00006070809000000000000000000000000C8
:105AC00000000000000000000000000000000000D6
:105AD00000000000000000000000000000000000C6
